:1000000000308A00752C0000FF00030E8301A10060
:100010000A08A0008A010408A2007708A300780853
:10002000A4007908A5007A08A6007B08A70083131E
:1000300083128C308400801E1F288C1A32282208DC
:1000400084002308F7002408F8002508F900260892
:10005000FA002708FB0020088A00210E8300FF0E0B
:100060007F0E09008A110A12EF2A0A108A100A115B
:10007000820728340C34013406340A108A100A111D
:10008000443E03188A0A8200FF34FF34FF34FF34F1
:10009000FF34FF34FF34FB34FB34FB34FB34FB34DC
:1000A000FF34FB34F534F534F534FF34FF34FF34DA
:1000B000FF34F534F534E034F534E034F534F53418
:1000C000FB34F034EB34F134FA34E134FB34E33410
:1000D000EA34E534FB34F434EA34F834F734EB34FE
:1000E000EB34F734EA34ED34F234F934F934FD34D6
:1000F000FB34FF34FF34FF34FD34FB34F734F73482
:10010000F734FB34FD34F734FB34FD34FD34FD3477
:10011000FB34F734FB34EA34F134FB34F134EA34A1
:10012000FB34FF34FB34FB34E034FB34FB34FF346A
:10013000FF34FF34FF34F334F334FB34F734FF344B
:10014000FF34FF34F134FF34FF34FF34FF34FF3425
:10015000FF34FF34FF34F334F334FF34FE34FD3422
:10016000FB34F734EF34FF34F134EE34EC34EA345A
:10017000E634EE34F134FB34F334FB34FB34FB343B
:10018000FB34F134F134EE34FE34F134EF34EF3437
:10019000E034F134EE34FE34F934FE34EE34F1342C
:1001A000FD34F934F534ED34E034FD34FD34E0341D
:1001B000EF34E134FE34FE34FE34E134F934F73404
:1001C000EF34E134EE34EE34F134E034FE34FD3417
:1001D000FB34F734F734F734F134EE34EE34F134E1
:1001E000EE34EE34F134F134EE34EE34F034FE34E7
:1001F000FD34F334FF34F334F334FF34F334F334A5
:10020000FF34F334FB34F334F334FF34F334F33496
:10021000FD34FB34F734EF34F734FB34FD34FF3472
:10022000FF34F134FF34F134FF34FF34F734FB345E
:10023000FD34FE34FD34FB34F734F134EE34FE3457
:10024000FD34FB34FF34FB340A148A100A112B3EB0
:1002500003188A0A8200F134EE34FE34F234EA34B0
:10026000EA34F134FB34F534EE34EE34E034EE3479
:10027000EE34E134F634F634F134F634F634E13465
:10028000F134EE34EF34EF34EF34EE34F134E13462
:10029000F634F634F634F634F634E134E034EF3440
:1002A000EF34E334EF34EF34E034E034EF34EF3460
:1002B000E334EF34EF34EF34F134EE34EF34E83438
:1002C000EE34EE34F134EE34EE34EE34E034EE3429
:1002D000EE34EE34F134FB34FB34FB34FB34FB34CA
:1002E000F134F834FD34FD34FD34FD34FD34F334A1
:1002F000EE34ED34EB34E734EB34ED34EE34EF34FC
:10030000EF34EF34EF34EF34EF34E034EE34E434F0
:10031000EA34EA34EE34EE34EE34EE34E634EA34E1
:10032000EC34EE34EE34EE34F134EE34EE34EE34BC
:10033000EE34EE34F134E134EE34EE34E134EF34C3
:10034000EF34EF34F134EE34EE34EE34EA34ED349D
:10035000F234E134EE34EE34E134EB34ED34EE34A7
:10036000F134EE34EF34F134FE34EE34F134E03471
:10037000FB34FB34FB34FB34FB34FB34EE34EE341F
:10038000EE34EE34EE34EE34F134EE34EE34EE345A
:10039000F534F534FB34FB34EE34EE34EE34EA3429
:1003A000EA34E434EE34EE34EE34F534FB34F53430
:1003B000EE34EE34EE34EE34F534FB34FB34FB34FF
:1003C000FB34E034FE34FD34FB34F734EF34E034F6
:1003D000F134F734F734F734F734F734F134FF34C9
:1003E000EF34F734FB34FD34FE34FF34F134FD34A4
:1003F000FD34FD34FD34FD34F134FB34F534EE349A
:10040000FF34FF34FF34FF34FF34FF34FF34FF3454
:10041000FF34FF34E0340A108A140A118207F334DF
:10042000F334F734FB34FF34FF34FF34FF34FF344C
:10043000F134FE34F034EE34F134EF34EF34E93497
:10044000E634EE34E634E934FF34FF34F834F7347C
:10045000F734F734F834FE34FE34F234EC34EE344E
:10046000EC34F234FF34FF34F134EE34E034EF3462
:10047000F134F934F634F734E134F734F734F7343F
:10048000FF34FF34F034EE34F034FE34F134EF3422
:10049000EF34E934E634EE34EE34EE34FB34FF343A
:1004A000F334FB34FB34FB34F134FD34FF34F934E2
:1004B000FD34FD34FD34F334F734F734F634F534D9
:1004C000F334F534F634F334FB34FB34FB34FB34CF
:1004D000FB34F134FF34FF34E534EA34EA34EA34EF
:1004E000EA34FF34FF34E934E634EE34EE34EE34EB
:1004F000FF34FF34F134EE34EE34EE34F134FF34B3
:10050000FF34E134EE34E134EF34EF34FF34FF34C0
:10051000F034EE34F034FE34FE34FF34FF34E9348A
:10052000E634EF34EF34EF34FF34FF34F034EF349B
:10053000F134FE34E134FB34FB34F034FB34FB346F
:10054000FB34FC34FF34FF34EE34EE34EE34EC3460
:10055000F234FF34FF34EE34EE34EE34F534FB3451
:10056000FF34FF34EE34EE34EA34EA34F434FF344A
:10057000FF34EE34F534FB34F534EE34FF34FF341D
:10058000EE34F534FB34FB34F334FF34FF34E03421
:10059000FD34FB34F734E034F934F734F734E7341E
:1005A000F734F734F934FB34FB34FB34FF34FB34D9
:1005B000FB34FB34F334FD34FD34FC34FD34FD34C2
:1005C000F334F534EA34FF34FF34FF34FF34FF34BE
:1005D00000340034003400340034003400342F3050
:1005E0004F07840083138316EE010408ED006E109C
:1005F000831B6E1419308312031791000A30900088
:10060000023092009B30930003309302031C122BA4
:1006100013308400831700080319122B102B102BA2
:10062000800B0F2B920B022B900B1D2B910B1D2B74
:100630000313AE01F8012A2B031703138C1A222B84
:100640000317002B1808AE001A08F800AE1C2A2B5E
:100650001812181683166D08840083136E188317FA
:100660007808800083124F088316EA000130831255
:100670004F071F39CF0050084F02031D432B83162D
:100680006A088312CF008C128A110A121F28E130E7
:1006900084008313000803195A2B0630F800F70171
:1006A000F70B502BF80B4F2B7B30F700F70B562B2B
:1006B000800B4D2B00348316680EF039F7000F3095
:1006C0008312060577048600000006140330F70045
:1006D000F70B682B061000348610F0308316860066
:1006E000831206150000061400000608060E0F39D6
:1006F0008316E80083120610000006147F2B802B5F
:1007000000000608060E0F398316E7008312061054
:10071000003083168600680EF700F030F705770882
:100720006704F8007808E700E71F982B83126D2B09
:1007300065189D2B831286108316651CA22B8312CD
:10074000861483160000831206110000061083161B
:10075000660EE7000F30E7056708E80083125B23A9
:10076000831666080F39E700E80083125B23003424
:1007700000308316860083128610061106100F3093
:100780008316E1008312472301308316E0006008DE
:10079000033C031CD72B0330E80083125B23053096
:1007A0008316E100831247238316E00AC72B023029
:1007B000E80083125B238316E0016008033C031CFE
:1007C000EE2B6008831235208316E100E5016108F5
:1007D000E60083126C238316E00ADD2B83128A1154
:1007E0000A12D72C50084F020319F22B2F30500752
:1007F0008400831300088316E00001308312500741
:100800001F39D00083166008F80083128A110A127B
:10081000EB2C8316620B0D2C102C4030E300112CB6
:10082000E30101306102E30763088038E400E50179
:100830006408E60083126C230034831660080C3AC7
:10084000831203192A2C063A0319362C023A03198B
:100850003E2C452C8316E5010130E60083126C2303
:1008600002308316E100831247234D2C013083169A
:10087000E1000230E200831209244D2C8316E501C9
:100880001030E60083126C234D2C01308316E500F6
:100890006008E60083126C234D2C0034F701F80148
:1008A0008316630803106418F707F70CF80CE418B4
:1008B000F707F70CF80C6419F707F70CF80CE419B4
:1008C000F707F70CF80C641AF707F70CF80CE41AA2
:1008D000F707F70CF80C641BF707F70CF80CE41B90
:1008E000F707F70CF80C83120034840183131F30D0
:1008F0008305813083169900A630980090308312CA
:10090000980083161F149F141F159F118312A801AE
:10091000A901AE01CF01D00120308316A000A100B3
:10092000A200A300A400A500A600A700A800A9009B
:10093000AA00AB00AC00AD00AE00AF00B000B1004B
:10094000B200B300B400B500B600B700B800B900FB
:10095000BA00BB00BC00BD00BE00BF00C000C100AB
:10096000C200C300C400C500C600C700C800C9005B
:10097000CA00CB00CC00CD00CE00CF00D000D1000B
:10098000D200D300D400D500D600D700D800D900BB
:10099000DA00DB00DC00DD00DE00DF018312DC01B9
:1009A0005E10C0308B0483168C168312B82B643013
:1009B0008316E100831247230130DA008316850194
:1009C00083128501831686018312860150084F0227
:1009D0000319972DF22BFA017808D1007A08D2007A
:1009E00051088316E00083121D245108F7005208B5
:1009F000FA007A08031D002D0830770203192B2D09
:100A00007A08031D072D093077020319552D7A083E
:100A1000031D0E2D0B3077020319582D7A08031D84
:100A2000152D0430770203195B2D7A08031D1C2D48
:100A3000023077020319742D7A08031D232D033029
:100A400077020319772D7A08031D2A2D01307702CA
:100A50000319802D862DDC080319542D0130DC028A
:100A60005C080F3C031D3B2D11308316E100013063
:100A7000E20083120924A0305C0784008313203035
:100A800080008316E00083121D2408308316E000E6
:100A900083121D2420308316E00083121D240830A9
:100AA0008316E00083121D24962DDC01D701962DBC
:100AB0000130DE06962D0C308316E00083121D24D3
:100AC000DD0103305C07083E5D020319692D031840
:100AD000712DA0305D078400831320308000DD0A73
:100AE000612DD701DC01962DD701D801962D5C0828
:100AF000083C03187E2D08305C02D700D801962DE3
:100B00000C308316E00083121D24962DA0305C0764
:100B100084008313510880005C08283C031C922D3C
:100B20000130DC075C08103C0319962D982D982D98
:100B3000D5015508073C031C312E5708D400083056
:100B40005707540203181F2EA03054078400831344
:100B500000083F3C031CC02DA030540784008313C1
:100B6000203000028316E200E3000730E400831225
:100B70004E24550878073D20F800DB00DB09F72DEF
:100B8000A03054078400831300085F3C031CDC2D55
:100B9000A030540784008313403000028316E20023
:100BA000E3000730E40083124E245508780724211F
:100BB000F800DB00DB09F72DA03054078400831315
:100BC00000087E3C031CF72DA030540784008313DB
:100BD000603000028316E200E3000730E400831275
:100BE0004E24550878070B22F800DB00DB09550876
:100BF000073C0319DB01083057075402031D042E7C
:100C000003305807D300062E0830D300D60153080E
:100C1000560203181D2E0310DB0D0318112E85102C
:100C2000122E851483168510051083120514831661
:100C3000051083120510D60A072ED40A9F2D83169D
:100C4000880183125A08880002308316E10083125B
:100C5000472383168801831288015A0DDA0DD50ABD
:100C6000992D0130D9075908053C031D3A2ED901A9
:100C70000130D8075808063C031D802ED8015E1CA1
:100C8000802E0130D707A0305C078400831320300A
:100C9000800001305C07A03E840083132030800078
:100CA00002305C07A03E8400831320308000DD0109
:100CB0005D08073C031C7B2E03305C075D07A03EEC
:100CC000F800FA010318FA0A78088316E2007A0895
:100CD000E300A03083125D078400831300088316AD
:100CE000E40062088400831363188317640880009B
:100CF0008312DD0A582E03305C0757020318D70110
:040D0000DE2C630082
:02400E003A3F37
:00000001FF
;PIC16F877
;CRC=BAAD  CREATED="08-mai-15 05:44"
